:1000000000308A0057280000FF00030E8301A10082
:100010000A08A0008A010408A2007708A300780853
:10002000A4007908A5007A08A6007B08A70083131E
:1000300083128C308400801E1F288C1A32282208DC
:1000400084002308F7002408F8002508F900260892
:10005000FA002708FB0020088A00210E8300FF0E0B
:100060007F0E09008A110A1235288C1E35281A08BD
:10007000AB002B080C1E3A2899008C128A110A1228
:100080001F282A30840083130008031954280630DF
:10009000F800F701F70B4A28F80B49287B30F700E6
:1000A000F70B5028800B47288A110A127628840102
:1000B00083131F308305813083169900A230980086
:1000C00090308312980083161F149F141F159F11E0
:1000D000FF308312A8002810280883168700831297
:1000E00007140830A900FA30AA004128A90B732888
:1000F000281028088316870083120710BF30831644
:1001000087008312A80083168C16C03083128B04DC
:0401100088286300D8
:02400E00323F3F
:00000001FF
;PIC16F876
