:040000003BEF1BF0C7
:08000800046ED8CF05F0E0CF33
:1000100006F00001E9CF0CF0EACF07F0E1CF08F0DD
:10002000E2CF09F0D9CF0AF0DACF0BF0F3CF12F01C
:10003000F4CF13F0FACF14F0F5CF15F0F6CF16F099
:10004000F7CF17F000C00EF001C00FF002C010F0A3
:1000500003C011F0F2AA30EF00F0F2B45DEF00F04F
:10006000F2A836EF00F0F2B24DEF15F00EC000F03E
:100070000FC001F010C002F011C003F00CC0E9FF86
:1000800007C0EAFF078E08C0E1FF09C0E2FF0AC00F
:10009000D9FF0BC0DAFF12C0F3FF13C0F4FF14C086
:1000A000FAFF15C0F5FF16C0F6FF17C0F7FF0450A2
:1000B00006C0E0FF05C0D8FF1000D76AD66AF294E8
:1000C00036EF00F0949C8B8C949E8B9E00D000D0D9
:1000D000949E8B8E00D0949C8B9C00D0949E8B9E83
:1000E00000D000D0949E8B8E00D0949C8B8C00D03E
:1000F000949E8B9E1200949E8B9E080E0101516F60
:1001000051531DE0010E515D536F50C100F053512A
:10011000016E04E0D8900032012EFCD700A003D07D
:10012000949C8B8C02D0949C8B9C00D000D0949E8D
:100130008B8E00D000D0949E8B9E5107E1D7948C7B
:1001400000D000D0949E8B8E948C526B82BC522B2C
:1001500000D000D0949E8B9E52C101F0000112008D
:1001600001017C6B7D6B010E7E6FDA6AD96A816F4B
:10017000740E806F010EEA6E780EE96E81C1E2FFA7
:1001800080C1E1FF7EC17FF1D890E550EE02F350CF
:100190007C23F4507D237F2FF7D77CC1DEFF7DC108
:1001A0007CF17D6BD8B07D2B802BD8B4812B7E2B3E
:1001B0007E510508DFE100011200D8B204D0010E23
:1001C000EA6E7E0EE96E010179517D19800B836F15
:1001D00079AF0BD0761F771F781F791F762BD8B495
:1001E000772BD8B4782BD8B4792B7DAF0BD07A1F6E
:1001F0007B1F7C1F7D1F7A2BD8B47B2BD8B47C2B24
:10020000D8B47D2B006A016A026A036A7E6B7F6B39
:10021000806B816B7D517C117B117A112CE0200E5B
:10022000826FD89076377737783779377E377F3750
:10023000803781377D51815D08E17C51805D05E12A
:100240007B517F5D02E17A517E5D0FE37A517E5FE3
:100250007B51D8A07B3D7F5F7C51D8A07C3D805FE7
:100260007D51D8A07D3D815FD880003601360236B1
:100270000336822FD6D783AF0BD0001E011E021E7D
:10028000031E002AD8B4012AD8B4022AD8B4032AFB
:100290007EC1EFFF7FC1ECFF80C1ECFF81C1ECFFAD
:1002A00000011200B60E006E036A026A016A0101C3
:1002B000769175AF0CD07681721F731F741F751FF6
:1002C000722B05E1732B03E1742BD8B4752B72519B
:1002D00073117411751102E1006A0FD0D89001BE3C
:1002E00009D07237733774377537033602360136E3
:1002F000002EF4D7019E76B1018E0001120001019B
:100300008051D8B471D0006E8451D8B46DD000261D
:1003100004E3810E002668E204D07F0E005E64E3F1
:1003200063E081C188F18551881B818F858F83515E
:100330008703F4CF8AF182518603F4CF03F0F3CF21
:1003400089F18703F3508A27F4508923000E032292
:1003500083518603F3508A27F4508923000E026AE2
:100360000322022281518703F3508927F45003228C
:10037000000E022281518603F3500326F45002221C
:10038000000E016A012283518503F3508927F4503E
:100390000322000E0222012282518503F35003261C
:1003A000F4500222000E012281518503F3500226EF
:1003B000F4500122002A01BE05D0893703360236E7
:1003C00001360006000E89AF0AD0032A022201225C
:1003D000015005E1025003E1035001E1002A88BF0A
:1003E000018E88AF019E04D0006A016A026A036A26
:1003F00000011200800ED8A202D00101891B010168
:100400008E6B8F6B85C18DF189518D1B8451D8B452
:10041000DFD08C6F006E8851D8B4E3D08C5FD8B435
:1004200083D03EE389C192F1928F8AC191F18BC151
:1004300090F18F6BD8909233913390338F338C2F10
:10044000F8D78DAF03D08E81E0D08E918C918E89BC
:10045000010EEA6E870EE96EEBD08E998DBF0AD041
:100460008CA113D09233913390338F33002AD8B4B8
:10047000C7D00BD092BF0CD0D8908F379037913720
:1004800092370006D8B4BCD0F5D78E8D6DD08E9D36
:1004900085C18DF185AF02D0928FABD0929FA9D04C
:1004A00088C18CF188C100F084518C5F85C192F1C4
:1004B000928F86C191F187C190F18F6BD890923362
:1004C000913390338F338C2FF8D78DAF03D08E8339
:1004D0009CD08E938C918E8B010EEA6E8B0EE96E02
:1004E000A7D08E9B8DBF0AD08CA113D092339133AD
:1004F00090338F33002AD8B483D00BD092BF0CD066
:10050000D8908F379037913792370006D8B478D08B
:10051000F5D78E8F29D08E9F89C18DF189AF02D0FA
:10052000928F67D0929F65D089C192F1928F8AC1D4
:1005300091F18BC190F18DAF04D0929F8E8565D0E3
:100540008E958F6B8C91010EEA6E870EE96E70D0DE
:100550008DBF1CD085C18DF18CA106D09233913313
:1005600090338F33002A4CE08FAF0BD0902B09E1F2
:10057000912B07E1922B05E1923391339033002ABE
:100580003FE08EBD84D78EBFC6D71CD0800E921B95
:1005900092AF04D03AD089C18DF10AD085C18DF1D6
:1005A000925306E1915304E1905302E1006A21D095
:1005B00092BF08D0D8908F37903791379237002E5E
:1005C000F7D71ED08DAF02D0928F13D0929F11D04B
:1005D00088C100F089C192F18AC191F18BC190F17B
:1005E00008D084C100F085C192F186C191F187C124
:1005F00090F192C101F091C102F090C103F034D0AA
:10060000006A016A026A036A2FD08F6B901F911FE4
:10061000921F8F1F8F2B05E1902B03E1912B01E19E
:10062000922B8EB112D78EB354D78EB589D7B3D74C
:10063000EF50902705E3912B03E1922BD8B48C81E6
:10064000ED52EF50912703E3922BD8B48C81ED52F9
:10065000EF50EFBE01D0800A9227D8B08C818EB9BE
:10066000FCD68EBB3ED774D7000112008E0E006EF2
:1006700001018051005E81C102F082C101F0028E51
:10068000005209E0D890025202E1015204E0023225
:100690000132002EF7D781AF05D0011E021E012ABC
:1006A000D8B4022A00011200C9500F0EC96EC7301B
:1006B000FEE3C950400EC96EC730FEE3948882B88D
:1006C000FDD7C950C96AC730FEE3C9CF6CF1C95024
:1006D000C96AC730FEE3C9CF6DF16CC16FF16DC15E
:1006E0006EF1C9500F0EC96EC730FEE3C950200E1F
:1006F000C96EC730FEE3948882B8FDD7C950C96A75
:10070000C730FEE3C9CF6CF1C950C96AC730FEE3F8
:10071000C9CF6DF16CC171F16DC170F15734010138
:10072000726F5834736F7237733772377337F80ECE
:1007300072174F0E7325036E026A036A03C067F1D6
:1007400002C066F1656F72C164F16451705D686FDB
:1007500065517159696F000E66556A6F000E6755D5
:100760006B6F320E5924016E000E5A20036E01C0C9
:1007700072F1736F6BC177F16AC176F169C175F17E
:1007800068C174F17B6B7A6B796F01C078F10001FD
:10079000E7DC03C075F102C074F101C073F100C061
:1007A00072F1D89203C079F102C078F101C077F1FB
:1007B00000C076F101017D6B7C6B040E7B6F7A6B60
:1007C0000001FBDCC80E0026000E012202220322DB
:1007D00003C075F102C074F101C073F100C072F181
:1007E00061DD03C053F102C052F101C051F100C0FC
:1007F00050F1000E555C0101726F020E5658736F76
:10080000776B766B756F72C174F16BC17BF16AC1E6
:100810007AF169C179F168C178F10001A1DC03C006
:1008200075F102C074F101C073F100C072F1D89289
:1008300003C079F102C078F101C077F100C076F110
:1008400001017D6B7C6B100E7B6F7A6B0001B5DC58
:1008500003C05BF102C05AF101C059F100C058F168
:1008600051340101726F5234736F72377337FC0E5B
:1008700072177251582773515923000E5A235B2364
:10088000776B766B54C075F153C074F16BC17BF11B
:100890006AC17AF169C179F168C178F1000160DC5F
:1008A00003C05FF102C05EF101C05DF100C05CF108
:1008B000D8925FC179F15EC178F15DC177F15CC119
:1008C00076F101017D6B7C6B040E7B6F7A6B00010E
:1008D00074DC03C05FF102C05EF101C05DF100C0D5
:1008E0005CF14F5001015C25726F50505D21736FB8
:1008F000000E5E21746F000E5F21756F72C15CF196
:10090000600E73255D6F000E74215E6F000E752101
:100910005F6F000E6E5D006E1C0E6F59036E00C09F
:1009200072F1736F5FC177F15EC176F15DC175F1F0
:100930005CC174F17B6B7A6B796F00C078F1000158
:100940000FDC03C075F102C074F101C073F100C087
:1009500072F1D89203C079F102C078F101C077F149
:1009600000C076F101017D6B7C6B400E7B6F7A6B72
:10097000000123DC01015851005C606F595101589E
:10098000616F5A510258626F5B510358636F63C1C4
:1009900075F162C174F161C173F160C172F100015E
:1009A00081DC03C083F102C082F101C081F100C08B
:1009B00080F10101876B866B856B7A0E846F000175
:1009C0009EDC00C072F101C073F102C074F103C07B
:1009D00075F1D89203C087F102C086F101C085F19C
:1009E00000C084F101018B6B8A6B7A0E896F860ED1
:1009F000886F0001FFDC03C057F102C056F101C04F
:100A000055F100C054F157C183F156C182F155C16F
:100A100081F154C180F10101876B866B200E856FD7
:100A2000820E846F00016BDC03C083F102C082F18F
:100A300001C081F100C080F119DE025012000101F5
:100A40005091D890483601E3508150B102D0D890EF
:100A500001D0D880473602E2509101D0508150B188
:100A600002D0D89001D0D8804832010E566F510E76
:100A7000556F4AC054F149C053F148C052F147C0C4
:100A800051F156C103F055C1E9FF56C1EAFFEFCF5E
:100A900000F0ECCF01F0ECCF02F0ECCF03F000015E
:100AA0001200C950AA0EC96EC730FEE3C9CF46F086
:100AB000C950040EC96EC730FEE3C9CF46F0C95015
:100AC000C96AC730FEE3C9CF46F04650AA0807E01E
:100AD000C950C96AC730FEE3C9CF46F0F6D7C9503E
:100AE000C96AC730FEE3C9CF46F0C950C96AC730EA
:100AF000FEE3C9CF46F0C950C96AC730FEE3C9CF8B
:100B000046F0C950C96AC730FEE3C9CF47F0C950A3
:100B1000C96AC730FEE3C9CF48F0C950C96AC730B7
:100B2000FEE3C9CF49F0C950C96AC730FEE3C9CF57
:100B30004AF085DF03C024F002C023F001C022F098
:100B400000C021F0C950C96AC730FEE3C9CF46F0E2
:100B5000C950C96AC730FEE3C9CF47F0C950C96A56
:100B6000C730FEE3C9CF48F0C950C96AC730FEE3B9
:100B7000C9CF49F0C950C96AC730FEE3C9CF4AF0AE
:100B80005EDF03C028F002C027F001C026F000C0DD
:100B900025F0C950C96AC730FEE3C9CF46F0C95035
:100BA000C96AC730FEE3C9CF47F0C950C96AC73028
:100BB000FEE3C9CF48F0C950C96AC730FEE3C9CFC8
:100BC00049F0C950C96AC730FEE3C9CF4AF037DFE0
:100BD00003C02CF002C02BF001C02AF000C029F0A5
:100BE000C950C96AC730FEE3C9CF46F012000101FF
:100BF000526B516B949E8B9E948C948C82BCFDD7CF
:100C0000100E536F535348E000D000D0949E8B8E4B
:100C100000D0948C509182BC508100D0949E8B9EC9
:100C200050A113D0010E535D546F036A010E026E82
:100C30005451006E05E0D89002360336002EFBD7E3
:100C4000025051130350521317D0010E535D546FCD
:100C5000036A010E026E5451006E05E0D890023610
:100C60000336002EFBD70250FF0A006EFF0E031A58
:100C70000050511703505217535109080BE1949C2F
:100C80008B9C00D000D0949E8B8E00D000D0949E80
:100C90008B9E948C5307B6D700D000D0949E8B8E39
:100CA00000D000D0949E8B9E51C101F052C102F041
:100CB000000112008E0E006E85C101F084C102F0A9
:100CC000036A015209E102C001F0026A080E005EE7
:100CD000015202E1006A08D0D89001BE04D0023669
:100CE00001360006F9D7019E120001017951D8B4EE
:100CF000A5D0856F7D51D8B4A1D0855F05E37F0E67
:100D00008527D8B09BD006D0810E855FD8A096D01D
:100D1000D8B494D085C100F0016A026A036A846B7A
:100D20007AC183F1838F7BC182F17CC181F1190E7D
:100D3000856F8051815F0DE2010E825F0AE2835F61
:100D400008E2845F06E2842B832B822B805181276B
:100D500028D07F51825F12E2010E835F0FE2845F31
:100D60000DE2842B832B7F5182278051812719E349
:100D7000822B17E1832B15E1842B13D07E51800940
:100D8000835F0EE2010E845F0BE2842B7E518009AB
:100D900083277F518227E9E3832BE7E1842BE5D783
:100DA0000380852F01D00BD0D890813782378337CD
:100DB0008437D8900336023601368637BAD786A1F3
:100DC00006D0D890013202320332863302D00006B8
:100DD00035E086BF1ED0D89081378237833784377D
:100DE0008051815F07E2010E825F04E2835F02E2CD
:100DF000845F1AE37F51825F05E2010E835F02E2A6
:100E0000845F12E37E518009835F03E2010E845FF9
:100E10000BE3032A09E1022A07E1012A05E1002A7E
:100E20000DE00132023203327AC185F17E51851B19
:100E300085AF02D0018E06D0019E04D0006A016AFF
:100E4000026A036A0001120062EC00F0030E010165
:100E5000506F00017BEC00F0929A898A060E006EBA
:100E6000002EFED70000C69A949A94889496220E7B
:100E7000C66EC00EC76E18DC02C07CF001C07BF0ED
:100E8000929A899AC69A949A94889496220EC66EDB
:100E9000400EC76E060E006E002EFED7000001DE6B
:100EA000A6DE02C086F001C085F062EC00F0050EFF
:100EB0000101506F00017BEC00F0000E016EC2508A
:100EC000C70B0110C26E0D0E006E002EFED7C2843D
:100ED000C2B4FED7C450826B816F080E016EC2503F
:100EE000C70B0110C26E0D0E006E002EFED7C2841D
:100EF000C2B4FED7C450846B836FD6507F6ED7CFF9
:100F000080F0D76AD66A73DE02C088F001C087F02D
:100F100080C085F17FC084F1CDDE00C050F101C0FA
:100F200051F102C052F103C053F103C083F102C07A
:100F300082F101C081F100C080F124C087F123C09B
:100F400086F122C085F121C084F17FEC01F000C060
:100F500050F101C051F102C052F103C053F103C07E
:100F60007CF102C07BF101C07AF100C079F12CC0A4
:100F700080F12BC07FF12AC07EF129C07DF1B5DE62
:100F800003C08CF002C08BF001C08AF000C089F071
:100F900080C085F17FC084F18DDE00C050F101C0BA
:100FA00051F102C052F103C053F103C083F102C0FA
:100FB00082F101C081F100C080F128C087F127C013
:100FC00086F126C085F125C084F17FEC01F000C0D8
:100FD00050F101C051F102C052F103C053F103C0FE
:100FE0007CF102C07BF101C07AF100C079F12CC024
:100FF00080F12BC07FF12AC07EF129C07DF175DE22
:1010000003C090F002C08FF001C08EF000C08DF0E0
:10101000120093988A98080E016E00D00000018E8D
:1010200010D0019E010152330001D8B08A88D8A0A7
:101030008A98018C06D0019C012EF4D700D00000C4
:101040008A883F0EE96EE92EFED7000001BEE9D77F
:1010500001BCF1D71200010EEA6E500EE96EEF509E
:101060000DE0020E016E006A002EFED7012EFBD7A6
:10107000970E006E002EFED7EF2EF3D71200D8B2D7
:1010800004D0010EEA6E580EE96E006A016A026A27
:10109000036A0101586B596B5A6B5B6B57515611C0
:1010A000551154112CE0200E5C6FD89050375137F9
:1010B00052375337583759375A375B3757515B5D7B
:1010C00008E156515A5D05E15551595D02E154510F
:1010D000585D0FE35451585F5551D8A0553D595FA5
:1010E0005651D8A0563D5A5F5751D8A0573D5B5F27
:1010F000D88000360136023603365C2FD6D758C169
:10110000EFFF59C1ECFF5AC1ECFF5BC1ECFF0001DE
:101110001200016A026A006A036A0101535102E186
:10112000525118E0100E546FD89050375137003696
:1011300003365351035C02E15251005C07E3525104
:10114000005ED8A003065351035ED88001360236F4
:10115000542FEAD70001120081C188F101018551A5
:10116000881B88AF05D0D894D89081BFD8802FD065
:1011700081C188F184C189F18051895F06E088AF1F
:1011800026D0D850010AD86E22D085C189F181516C
:10119000895F06E088AF1BD0D850010AD86E17D0FF
:1011A00086C189F18251895F06E088AF10D0D8509E
:1011B000010AD86E0CD087C189F18351895F06E09E
:1011C00088AF05D0D850010AD86E01D0D890000160
:1011D000120001016491649357C15BF156C15AF149
:1011E00055C159F154C158F157C183F156C182F12B
:1011F00055C181F154C180F1876B866B856B846B1F
:101200000001AADF05E3010164815951800A596F89
:101210000101836B826B816B7F0E806F5BC187F1F5
:101220005AC186F159C185F158C184F1000194DF9A
:101230001AE301017C6B7B6B7A6B7F0E796F5BC16C
:1012400080F15AC17FF159C17EF158C17DF1000191
:101250004CDD03C05BF102C05AF101C059F100C07E
:1012600058F1010164830A0E0101836F890E826FB8
:10127000340E816F7C0E806F5BC187F15AC186F19D
:1012800059C185F158C184F100017FEC01F000C023
:1012900065F101C066F102C067F103C068F103C0E7
:1012A00083F102C082F101C081F100C080F15BC115
:1012B00087F15AC186F159C185F158C184F17FEC9B
:1012C00001F000C065F101C066F102C067F103C022
:1012D00068F1D89203C087F102C086F101C085F1A0
:1012E00000C084F17C0E01018B6F790E8A6F350E80
:1012F000896F810E886F0001FAEC01F003C05FF185
:1013000002C05EF101C05DF100C05CF15FC183F11C
:101310005EC182F15DC181F15CC180F15BC187F189
:101320005AC186F159C185F158C184F17FEC01F0B1
:1013300000C065F101C066F102C067F103C068F149
:1013400003C083F102C082F101C081F100C080F1CD
:101350005BC187F15AC186F159C185F158C184F149
:101360007FEC01F000C065F101C066F102C067F1D9
:1013700003C068F1D89203C087F102C086F101C0B2
:1013800085F100C084F13F0E01018B6F020E8A6F60
:10139000330E896F830E886F0001FAEC01F003C0F1
:1013A0005FF102C05EF101C05DF100C05CF15FC1A0
:1013B00083F15EC182F15DC181F15CC180F15BC1ED
:1013C00087F15AC186F159C185F158C184F17FEC8A
:1013D00001F000C065F101C066F102C067F103C011
:1013E00068F103C083F102C082F101C081F100C045
:1013F00080F15BC187F15AC186F159C185F158C1AD
:1014000084F17FEC01F000C065F101C066F102C01B
:1014100067F103C068F1D89203C087F102C086F17A
:1014200001C085F100C084F1330E01018B6F8C0E79
:101430008A6F1E0E896F830E886F0001FAEC01F02F
:1014400003C05FF102C05EF101C05DF100C05CF15C
:101450000101836B826B816B7F0E806F5BC187F1B3
:101460005AC186F159C185F158C184F100017FEC60
:1014700001F000C065F101C066F102C067F103C070
:1014800068F103C083F102C082F101C081F100C0A4
:1014900080F15BC187F15AC186F159C185F158C10C
:1014A00084F17FEC01F000C065F101C066F102C07B
:1014B00067F103C068F1D89203C087F102C086F1DA
:1014C00001C085F100C084F11B0E01018B6FE40E99
:1014D0008A6F350E896F820E886F0001FAEC01F079
:1014E00003C063F102C062F101C061F100C060F1AC
:1014F00063C183F162C182F161C181F160C180F198
:101500005BC187F15AC186F159C185F158C184F197
:101510007FEC01F000C065F101C066F102C067F127
:1015200003C068F103C083F102C082F101C081F100
:1015300000C080F15BC187F15AC186F159C185F1C4
:1015400058C184F17FEC01F000C065F101C066F183
:1015500002C067F103C068F1D89203C087F102C0EE
:1015600086F101C085F100C084F1A40E01018B6FEA
:10157000DB0E8A6F670E896F830E886F0001FAECAD
:1015800001F003C063F102C062F101C061F100C06B
:1015900060F163C183F162C182F161C181F160C117
:1015A00080F15BC187F15AC186F159C185F158C1FB
:1015B00084F17FEC01F000C065F101C066F102C06A
:1015C00067F103C068F103C083F102C082F101C07A
:1015D00081F100C080F15BC187F15AC186F159C128
:1015E00085F158C184F17FEC01F000C065F101C0C4
:1015F00066F102C067F103C068F1D89203C087F1B9
:1016000002C086F101C085F100C084F1330E0101F2
:101610008B6F8C0E8A6F1E0E896F830E886F000190
:10162000FAEC01F003C063F102C062F101C061F1A4
:1016300000C060F15BC183F15AC182F159C181F1EF
:1016400058C180F15FC187F15EC186F15DC185F14E
:101650005CC184F17FEC01F000C065F101C066F16E
:1016600002C067F103C068F103C07CF102C07BF1E6
:1016700001C07AF100C079F163C180F162C17FF1EC
:1016800061C17EF160C17DF175EC06F003C05FF1D0
:1016900002C05EF101C05DF100C05CF1010164A314
:1016A0001DD0D882DB0E876F0F0E866F490E856FB7
:1016B0007F0E846F5FC18BF15EC18AF15DC189F1DC
:1016C0005CC188F10001FAEC01F003C05FF102C0D7
:1016D0005EF101C05DF100C05CF1010164A103D0C5
:1016E0005D51800A5D6F5CC100F05DC101F05EC1BB
:1016F00002F05FC103F00001FEEF16F001017F91DF
:1017000073C178F172C177F171C176F170C175F171
:1017100073C183F172C182F171C181F170C180F135
:10172000876B866B856B846B000116DD05E3010119
:101730007F817651800A766F78C183F177C182F11B
:1017400076C181F175C180F10101876B866B856B74
:101750008E0E846F000100DD01E219E178C183F192
:1017600077C182F176C181F175C180F136EC03F069
:1017700002C085F101C084F15AEC06F003C07CF18F
:1017800002C07BF101C07AF100C079F1D2D078C1FA
:1017900083F177C182F176C181F175C180F1800E4C
:1017A0000101876F960E866F180E856F960E846FF7
:1017B0000001D2DCD8A0B5D078C183F177C182F125
:1017C00076C181F175C180F10101876B866B856BF4
:1017D000700E846F00017FEC01F003C083F102C042
:1017E00082F101C081F100C080F136EC03F002C04B
:1017F0007EF101C07DF178C183F177C182F176C1BC
:1018000081F175C180F10101876B866B856B700E6C
:10181000846F00017FEC01F000C080F101C081F114
:1018200002C082F103C083F17EC185F17DC184F1E4
:101830005AEC06F0D88283C187F182C186F181C15A
:1018400085F180C184F103C08BF102C08AF101C02F
:1018500089F100C088F1FAEC01F00101836B826B21
:10186000816B8E0E806F03C087F102C086F101C0CC
:1018700085F100C084F100017FEC01F003C078F134
:1018800002C077F101C076F100C075F17EC185F12B
:101890007DC184F15AEC06F00101836B826B816B90
:1018A0008E0E806F03C087F102C086F101C085F102
:1018B00000C084F100017FEC01F003C07CF102C0A4
:1018C0007BF101C07AF100C079F178C183F177C171
:1018D00082F176C181F175C180F136EC03F002C06E
:1018E00085F101C084F15AEC06F0D8927CC187F1F1
:1018F0007BC186F17AC185F179C184F103C08BF196
:1019000002C08AF101C089F100C088F1FAEC01F04F
:1019100003C07CF102C07BF101C07AF100C079F113
:1019200008D078C17CF177C17BF176C17AF175C1BD
:1019300079F178C183F177C182F176C181F175C106
:1019400080F136EC03F002C085F101C084F15AEC5D
:1019500006F0D88278C187F177C186F176C185F12A
:1019600075C184F103C08BF102C08AF101C089F115
:1019700000C088F1FAEC01F003C078F102C077F101
:1019800001C076F100C075F101017FA103D07A5149
:10199000800A7A6F78C183F177C182F176C181F1D3
:1019A00075C180F1876B866B856B846B0001ACEC35
:1019B00008F03CE001017FA11CD074531AE1D882E9
:1019C0007CC187F17BC186F17AC185F179C184F14F
:1019D0008B6B8A6B896B7F0E886F0001FAEC01F0CC
:1019E00003C07CF102C07BF101C07AF100C079F143
:1019F00001017FB11CD0742D1AD0D8927CC187F11F
:101A00007BC186F17AC185F179C184F18B6B8A6BD8
:101A1000896B7F0E886F0001FAEC01F003C07CF146
:101A200002C07BF101C07AF100C079F1010173C1FC
:101A300083F172C182F171C181F170C180F1876B54
:101A4000866B856B846B0001ACEC08F006E101014C
:101A50007C6B7B6B7A6B796B000179C100F07AC18A
:101A600001F07BC102F07CC103F012006FC173F181
:101A70006EC172F16DC171F16CC170F1010E0101A5
:101A8000746F00013BDEB3EF0DF06FC173F16EC1F7
:101A900072F16DC171F16CC170F10101746B0001E3
:101AA0002DDED7EF0DF063C183F162C182F161C118
:101AB00081F160C180F10101876B866B856B846B5E
:101AC0000001ACEC08F0D8B4A1D05FC17CF15EC1DC
:101AD0007BF15DC17AF15CC179F163C180F162C1D2
:101AE0007FF161C17EF160C17DF175EC06F000C04F
:101AF00068F101C069F102C06AF103C06BF103C073
:101B000083F102C082F101C081F100C080F10101C6
:101B1000876B866B856B846B0001ACEC08F024E36B
:101B20005FC17CF15EC17BF15DC17AF15CC179F18D
:101B300063C180F162C17FF161C17EF160C17DF15D
:101B400075EC06F000C068F101C069F102C06AF1ED
:101B500003C06BF103C06FF102C06EF101C06DF103
:101B600000C06CF183D723D05FC17CF15EC17BF1F3
:101B70005DC17AF15CC179F163C180F162C17FF12D
:101B800061C17EF160C17DF175EC06F000C068F1C5
:101B900001C069F102C06AF103C06BF103C06FF1CB
:101BA00002C06EF101C06DF100C06CF16ED703C0D0
:101BB00067F102C066F101C065F100C064F167C160
:101BC00083F166C182F165C181F164C180F163C1B5
:101BD00087F162C186F161C185F160C184F17FEC5A
:101BE00001F0D8825FC187F15EC186F15DC185F1E8
:101BF0005CC184F103C08BF102C08AF101C089F19C
:101C000000C088F1FAEC01F001D000D012008E0E75
:101C1000006E77C101F076C102F0036A01AE05D013
:101C2000011E021E022A01E1012A015209E102C03D
:101C300001F0026A080E005E015202E1006A0ED055
:101C4000D89001BE04D0023601360006F9D7010152
:101C500077AF02D0000102D0019E0001120063C1E3
:101C600067F162C166F161C165F160C164F167C18C
:101C700083F166C182F165C181F164C180F1010126
:101C8000876B866B856B7F0E846F0001ACEC08F070
:101C9000D8B49FD1010E0101766F640EE96E76C152
:101CA000EAFF7E0EEF6ED88267C187F166C186F1CA
:101CB00065C185F164C184F18B6B8A6B896B7F0E82
:101CC000886F0001FAEC01F000C075F101C076F1F7
:101CD00002C077F103C078F1D89267C187F166C17D
:101CE00086F165C185F164C184F101018B6B8A6B5A
:101CF000896B7F0E886F0001FAEC01F078C17CF1EE
:101D000077C17BF176C17AF175C179F103C080F1B9
:101D100002C07FF101C07EF100C07DF175EC06F0DC
:101D200003C067F102C066F101C065F100C064F153
:101D300067C183F166C182F165C181F164C180F13F
:101D400067C187F166C186F165C185F164C184F11F
:101D50007FEC01F003C073F102C072F101C071F1B8
:101D600000C070F1990E0101836F470E826F8A0ED9
:101D7000816F7F0E806F73C187F172C186F171C16F
:101D800085F170C184F100017FEC01F000C075F1B4
:101D900001C076F102C077F103C078F1D89203C098
:101DA00087F102C086F101C085F100C084F1010114
:101DB0008B6B8A6B896B800E886F0001FAEC01F0E7
:101DC00003C06BF102C06AF101C069F100C068F1A3
:101DD0004C0E0101836FF30E826F3A0E816F7B0E02
:101DE000806F73C187F172C186F171C185F170C1D5
:101DF00084F100017FEC01F000C075F101C076F1C3
:101E000002C077F103C078F1D89203C087F102C015
:101E100086F101C085F100C084F12B0E01018B6FAA
:101E20009D0E8A6FDF0E896F7E0E886F0001FAECBF
:101E300001F003C06FF102C06EF101C06DF100C08E
:101E40006CF16FC183F16EC182F16DC181F16CC122
:101E500080F173C187F172C186F171C185F170C1E2
:101E600084F17FEC01F000C075F101C076F102C091
:101E700077F103C078F1D89203C087F102C086F1F0
:101E800001C085F100C084F101018B6B8A6B896B05
:101E90007F0E886F0001FAEC01F003C06FF102C001
:101EA0006EF101C06DF100C06CF167C183F166C1D4
:101EB00082F165C181F164C180F16BC187F16AC1B2
:101EC00086F169C185F168C184F17FEC01F000C041
:101ED00075F101C076F102C077F103C078F103C05B
:101EE0007CF102C07BF101C07AF100C079F16FC1D1
:101EF00080F16EC17FF16DC17EF16CC17DF175EC39
:101F000006F003C06BF102C06AF101C069F100C0C4
:101F100068F1010E0101766F600EE96E76C1EAFF8D
:101F20007E0EEF5C746F74BF01D014D0000ED880A9
:101F30007455776B766F76BF7707000168DE00C057
:101F40006CF10150800A01016D6F02C06EF103C097
:101F50006FF110D0776B74C176F176BF770700010F
:101F600056DE03C06FF102C06EF101C06DF100C01A
:101F70006CF101016FC183F16EC182F16DC181F11C
:101F80006CC180F1180E876F720E866F310E856FEF
:101F90007E0E846F00017FEC01F0D8926BC187F157
:101FA0006AC186F169C185F168C184F103C08BF112
:101FB00002C08AF101C089F100C088F1FAEC01F099
:101FC00003C06BF102C06AF101C069F100C068F1A1
:101FD00006D001016B6B6A6B696B686B000168C1AD
:101FE00000F069C101F06AC102F06BC103F0120098
:101FF00063C183F162C182F161C181F160C180F18D
:102000003B0E0101876FAA0E866F380E856F7F0E1B
:10201000846F00017FEC01F003C083F102C082F104
:1020200001C081F100C080F136EC03F001C070F115
:102030000101719163C167F162C166F161C165F12E
:1020400060C164F163C183F162C182F161C181F158
:1020500060C180F1876B866B856B846B0001ACEC93
:1020600008F006E301017181706D6551800A656FAA
:1020700001016B6B6A6B696B686B010E736F680EA5
:10208000E96E73C1EAFF7F0E7025EF6E67C183F1C1
:1020900066C182F165C181F164C180F13B0E876F39
:1020A000AA0E866F380E856F7F0E846F00017FEC5D
:1020B00001F000C072F101C073F102C074F103C0FD
:1020C00075F10101776B70C176F176BF770700017A
:1020D0009EDDD88275C187F174C186F173C185F127
:1020E00072C184F103C08BF102C08AF101C089F191
:1020F00000C088F1FAEC01F003C067F102C066F19C
:1021000001C065F100C064F17C0E0101836F880E8F
:10211000826F590E816F720E806F67C187F166C141
:1021200086F165C185F164C184F100017FEC01F0A5
:1021300000C072F101C073F102C074F103C075F107
:10214000D89203C087F102C086F101C085F100C0BA
:1021500084F1E00E01018B6F970E8A6F260E896F56
:10216000750E886F0001FAEC01F003C06FF102C038
:102170006EF101C06DF100C06CF16FC183F16EC1F1
:1021800082F16DC181F16CC180F167C187F166C1D7
:1021900086F165C185F164C184F17FEC01F000C076
:1021A00072F101C073F102C074F103C075F1D892ED
:1021B00003C087F102C086F101C085F100C084F13F
:1021C000C40E01018B6F1D0E8A6F1E0E896F780E73
:1021D000886F0001FAEC01F003C06FF102C06EF1EC
:1021E00001C06DF100C06CF16FC183F16EC182F16D
:1021F0006DC181F16CC180F167C187F166C186F163
:1022000065C185F164C184F17FEC01F000C072F119
:1022100001C073F102C074F103C075F1D89203C01C
:1022200087F102C086F101C085F100C084F15E0E25
:1022300001018B6F500E8A6F630E896F7A0E886F63
:102240000001FAEC01F003C06FF102C06EF101C0B1
:102250006DF100C06CF16FC183F16EC182F16DC18F
:1022600081F16CC180F167C187F166C186F165C1FA
:1022700085F164C184F17FEC01F000C072F101C00E
:1022800073F102C074F103C075F1D89203C087F1F5
:1022900002C086F101C085F100C084F11A0E01016F
:1022A0008B6FFE0E8A6F750E896F7C0E886F000132
:1022B000FAEC01F003C06FF102C06EF101C06DF1E4
:1022C00000C06CF16FC183F16EC182F16DC181F10B
:1022D0006CC180F167C187F166C186F165C185F186
:1022E00064C184F17FEC01F000C072F101C073F1B0
:1022F00002C074F103C075F1D89203C087F102C027
:1023000086F101C085F100C084F1180E01018B6FC8
:10231000720E8A6F310E896F7E0E886F0001FAECA3
:1023200001F003C06FF102C06EF101C06DF100C099
:102330006CF167C183F166C182F165C181F164C14D
:1023400080F16FC187F16EC186F16DC185F16CC1FD
:1023500084F17FEC01F0D8920101876B866B856B6D
:102360007F0E846F03C08BF102C08AF101C089F136
:1023700000C088F10001FAEC01F06BC183F16AC181
:1023800082F169C181F168C180F103C087F102C0A7
:1023900086F101C085F100C084F17FEC01F003C03B
:1023A0006BF102C06AF101C069F100C068F101017E
:1023B00071A119D07C6B7B6B7A6B7F0E796F6BC1CF
:1023C00080F16AC17FF169C17EF168C17DF10001D0
:1023D00075EC06F003C06BF102C06AF101C069F14F
:1023E00000C068F1010168C100F069C101F06AC173
:1023F00002F06BC103F00001120057C183F156C116
:1024000082F155C181F154C180F10101876B866B66
:10241000856B846B0001ACEC08F0D8A0D9D05BC10F
:102420005FF15AC15EF159C15DF158C15CF1010122
:10243000636B626B616B7F0E606F000153EC0DF09C
:1024400000C05CF101C05DF102C05EF103C05FF14C
:1024500003C083F102C082F101C081F100C080F1AC
:102460000101876B866B856B846B0001ACEC08F017
:10247000D8A4AED05BC15FF15AC15EF159C15DF124
:1024800058C15CF10101636B626B616B800E606F20
:10249000000153EC0DF000C05CF101C05DF102C021
:1024A0005EF103C05FF103C083F102C082F101C09D
:1024B00081F100C080F10101876B866B856B846BB5
:1024C0000001ACEC08F041E154C15CF1010155514F
:1024D000800A5D6F56C15EF157C15FF157C163F16C
:1024E00056C162F1616F54C160F100012FEC0EF032
:1024F00000C05CF101C05DF102C05EF103C05FF19C
:1025000003C083F102C082F101C081F100C080F1FB
:102510005BC187F15AC186F159C185F158C184F177
:102520007FEC01F000C05CF101C05DF102C05EF122
:1025300003C05FF103C063F102C062F101C061F149
:1025400000C060F155DDDED042D054C15CF1010124
:102550005551800A5D6F56C15EF157C15FF157C199
:1025600063F156C162F1616F54C160F100012FEC5B
:102570000EF000C05CF101C05DF102C05EF103C06D
:102580005FF103C083F102C082F101C081F100C09C
:1025900080F15BC187F15AC186F159C185F158C1FB
:1025A00084F17FEC01F000C05CF101C05DF102C07C
:1025B0005EF103C05FF103C063F102C062F101C0CC
:1025C00061F100C060F114DD800E011A9BD09AD039
:1025D00057C183F156C182F155C181F154C180F1D7
:1025E0000101876B866B856B846B0001ACEC08F096
:1025F00030E35BC15FF15AC15EF159C15DF158C171
:102600005CF10101636B626B616B7F0E606F0001B7
:1026100053EC0DF000C05CF101C05DF102C05EF151
:1026200003C05FF103C083F102C082F101C081F1F8
:1026300000C080F10101876B866B856B846B0001A4
:10264000ACEC08F006E0006A016A026A036A5AD03C
:1026500059D057C183F156C182F155C181F154C19E
:1026600080F10101876B866B856B846B0001ACEC9C
:1026700008F012E15BC183F15AC182F159C181F1C5
:1026800058C180F10101876B866B856B846B0001FB
:10269000ACEC08F001E236E157C163F156C162F1DA
:1026A00055C161F154C160F12FEC0EF000C05CF136
:1026B00001C05DF102C05EF103C05FF103C083F1B0
:1026C00002C082F101C081F100C080F15BC187F1DD
:1026D0005AC186F159C185F158C184F17FEC01F0EE
:1026E00000C05CF101C05DF102C05EF103C05FF1AA
:1026F00003C063F102C062F101C061F100C060F18A
:1027000077DC00D0120059C183F158C182F157C162
:1027100081F156C180F10101876B866B856B846BFB
:102720000001ACEC08F001E205E1006A016A026A0E
:10273000036A7BD059C15DF158C15CF157C15BF1AF
:1027400056C15AF1010E0101636F5A0E626F62C1E8
:10275000E9FF63C1EAFFEF50676B666F7F0E662784
:10276000000E6723D8906731663163C1EAFF62C10A
:10277000E9FFEF6E5DC161F15CC160F15BC15FF1CA
:102780005AC15EF159C17CF158C17BF157C17AF150
:1027900056C179F15DC180F15CC17FF15BC17EF111
:1027A0005AC17DF1000175EC06F0D8925DC187F148
:1027B0005CC186F15BC185F15AC184F103C08BF124
:1027C00002C08AF101C089F100C088F1FAEC01F081
:1027D00003C05DF102C05CF101C05BF100C05AF1C1
:1027E000010162C1E9FF63C1EAFFEF0661C183F144
:1027F00060C182F15FC181F15EC180F15DC187F18D
:102800005CC186F15BC185F15AC184F10001ACEC79
:1028100008F0D8B402D00101ADD75EC100F05FC1AD
:1028200001F060C102F061C103F089EF17F0080EFA
:10283000016E00D08A9E939E00D00000010159379E
:102840008A9CD8B0938CD8A0939C938E81AEFED7EF
:10285000012E01D002D00001ECD700D08A9E939EB9
:102860000000938C00D0000000D00000938E81AE59
:10287000FED7016A00D0000081BC01808A9E939E31
:102880008A9C939C00011200938C00D0938E00D000
:1028900000008A9C939C00D08A9E939EA00E01010A
:1028A000596F0001C4DF53C157F10101586B53C187
:1028B00059F10001BCDF52C159F1B9DF54C159F1DE
:1028C000B6DF939C0000938E81AEFED700D000D07F
:1028D0000000938C00D0938C00D0938E00D0000029
:1028E0008A9C939C00D08A9E939EA00E0101596FF2
:1028F00000019DDF01500101559101B0558155A1A5
:1029000016D0938C00D0938E00D0000081AEFED7FD
:102910008A9C939C00D08A9E939EA00E596F0001C2
:1029200086DF01500101559101B05581E8D70001C2
:102930001200080E0101546F00C055F1938C00D0B5
:102940000000938E81AEFED781BCD88081ACD89038
:10295000013600D0939E8A9E542FF0D7938C00D0DE
:1029600000008A9C5551D8A4939C0000938E81AEA0
:10297000FED700D08A9E939E00D000008A9C939C34
:1029800000011200938C00D0938E00D0000081AE25
:10299000FED78A9C939C00D08A9E939EA00E010134
:1029A000596F000144DF51C153F10101546B51C112
:1029B00059F100013CDF50C159F139DF938C00D04F
:1029C000938E00D0000081AEFED78A9C939C00D0ED
:1029D0008A9E939EA10E0101596F000128DF006AB3
:1029E000A8DF01C052F1939C0000938E81AEFED708
:1029F00000D000D00000938C00D0010152C101F042
:102A0000000112009C6B9B6B9A6B996BA06B9F6B88
:102A10009E6B9D6BA26BA16B946B936B926B916B96
:102A2000986B976B966B956BA46BA36B796A7A6ABC
:102A30000101516B010E506F0001A4DF01C076F05F
:102A40000101516B0B0E506F00019CDF786A01C0D1
:102A500077F077C078F0776A0101516B0C0E506FF8
:102A6000000190DF01507726000E78220101516BA2
:102A7000090E506F000186DF7E6A01C07DF07DC0C7
:102A80007EF07D6A0101516B0A0E506F00017ADF02
:102A900001507D26000E7E221200792A7650795C44
:102AA000D8A4C9D394908B80796A7A2A24EC07F051
:102AB0007CC041F17BC042F17EC043F17DC044F156
:102AC0007FC045F124C083F123C082F122C081F18F
:102AD00021C080F10101876B866B700E856F840EBB
:102AE000846F00017FEC01F003C083F102C082F12A
:102AF00001C081F100C080F136EC03F001C046F165
:102B000028C083F127C082F126C081F125C080F161
:102B10000101876B866B700E856F840E846F0001D8
:102B20007FEC01F003C083F102C082F101C081F1AA
:102B300000C080F136EC03F001C047F186C048F1D7
:102B400085C049F187C04AF178C04BF177C04CF19C
:102B500081C04DF183C04EF101013F6B3E6B4F6B65
:102B60004F5104081CE3036A4F51410FE96E010EF7
:102B70000320EA6EEF503E27000E3F23036A4F51B9
:102B8000410FE96E010E0320EA6EEFCF50F150C104
:102B900052F1000109EC08F001014F2BE1D73FC1D0
:102BA00050F1516B3FC152F1000109EC08F03EC1F8
:102BB00052F109EC08F085519D2786519E23000EA5
:102BC0009F23A0237B5099277C509A23000E9B23A0
:102BD0009C238751A1278851A223D89294C087F1C2
:102BE00093C086F192C085F191C084F18CC08BF1C5
:102BF0008BC08AF18AC089F189C088F1FAEC01F0B2
:102C000003C094F002C093F001C092F000C091F0B4
:102C1000D89298C087F197C086F196C085F195C08B
:102C200084F190C08BF18FC08AF18EC089F18DC084
:102C300088F1FAEC01F003C098F002C097F001C0EF
:102C400096F000C095F08351A3278451A4230F0E62
:102C50000101506F00012BEC08F001013F6B3E6B4E
:102C6000050E4F6F4F510D081CE3036A4F51410F82
:102C7000E96E010E0320EA6EEF503E27000E3F235F
:102C8000036A4F51410FE96E010E0320EA6EEFCF48
:102C900050F150C152F1000109EC08F001014F2B35
:102CA000E1D741C152F1000109EC08F042C152F1F3
:102CB00009EC08F00101425141253E27000E3F2357
:102CC0003FC150F1516B3FC152F1000109EC08F0D6
:102CD0003EC152F109EC08F045B4ECD17A50755C74
:102CE000D8A4E8D1D892A0C053F19FC052F19EC0A1
:102CF00051F19DC050F10101576B566B556B75C07A
:102D000054F100013FEC08F001C0A6F000C0A5F0AE
:102D1000A2C051F1A1C050F10101536B75C052F135
:102D2000000189EC08F001C0AAF0D8929CC053F1D0
:102D30009BC052F19AC051F199C050F10101576BFB
:102D4000566B556B75C054F100013FEC08F001C0A3
:102D5000A8F000C0A7F07F5205E1805303E1AC6BFF
:102D6000AB6B04D194C083F193C082F192C081F126
:102D700091C080F10101876B866B856B846B0001CC
:102D8000ACEC08F017E198C083F197C082F196C0CF
:102D900081F195C080F10101876B866B856B846B37
:102DA0000001ACEC08F003E35A0EAC6F02D0A60EA3
:102DB000AC6F44D098C07CF197C07BF196C07AF19B
:102DC00095C079F194C080F193C07FF192C07EF1FB
:102DD00091C07DF175EC06F000C050F101C051F1D9
:102DE00002C052F103C053F103C057F102C056F1C3
:102DF00001C055F100C054F1E9EF08F0E60E010101
:102E0000836F2E0E826FE50E816F840E806F03C07C
:102E100087F102C086F101C085F100C084F1000194
:102E20007FEC01F003C083F102C082F101C081F1A7
:102E300000C080F136EC03F001C0ACF094C083F127
:102E400093C082F192C081F191C080F10101876B42
:102E5000866B856B846B0001ACEC08F002E3A68FF7
:102E600001D0A69F94C057F193C056F192C055F17E
:102E700091C054F101015B6B5A6B596B800E586F16
:102E80000001FDEC11F000C050F101C051F102C091
:102E900052F103C053F198C057F197C056F196C054
:102EA00055F195C054F101015B6B5A6B596B800E63
:102EB000586F0001FDEC11F0EACF55F1E9CF54F164
:102EC000D89253C187F152C186F151C185F150C1E9
:102ED00084F103C08BF102C08AF101C089F100C006
:102EE00088F1FAEC01F055C1EAFF54C1E9FF00C0D6
:102EF00050F101C051F102C052F103C053F103C0BF
:102F000059F102C058F101C057F100C056F183EFEA
:102F100013F000C050F101C051F102C052F103C0E2
:102F200053F10101856B75C084F100015AEC06F084
:102F300053C17CF152C17BF151C17AF150C179F199
:102F400003C080F102C07FF101C07EF100C07DF1BD
:102F500075EC06F003C083F102C082F101C081F17B
:102F600000C080F136EC03F001C0ABF0A4C051F119
:102F7000A3C050F10101536B75C052F1000189ECFF
:102F800008F001C0A9F0938C00D0938E00D000000F
:102F90008A9C939C00D08A9E939EA00E0101596F3B
:102FA000000145DC78C050F10101516B78C059F146
:102FB00000013DDC77C059F13ADCA6C050F10101B7
:102FC000516BA6C059F1000132DCA5C059F12FDCCC
:102FD000AAC059F12CDCA8C050F10101516BA8C066
:102FE00059F1000124DCA7C059F121DCABC059F133
:102FF0001EDCACC059F11BDCA9C059F118DC939C54
:103000000000938E81AEFED700D000D00000938CDC
:1030100000D0938C00D0938E00D000008A9C939CAB
:1030200000D08A9E939EA00E0101596F000117ECFB
:1030300014F0015001013D9101B03D813DA117D037
:10304000938C00D0938E00D0000081AEFED78A9C76
:10305000939C00D08A9E939EA00E596F000117EC9E
:1030600014F0015001013D9101B03D81E7D7080EF8
:103070007726000E78227850FE0806E2FF0A03E168
:103080007750F60801E2458478C050F1516B536BDC
:103090000B0E526F78C054F1000144EC14F00101A2
:1030A000536B0C0E526F77C054F1000144EC14F0D6
:1030B000A9DC06D0050E0101506F00012BEC08F0D1
:1030C000A6C040F101013F6B40C13EF140C152F149
:1030D000000109EC08F0A5C040F1010140513E2774
:1030E000000E3F2340C152F1000109EC08F0AA5143
:1030F00001013E27000E3F23AAC052F1000109EC56
:1031000008F0A8C040F1010140513E27000E3F23C6
:1031100040C152F1000109EC08F0A7C040F10101E3
:1031200040513E27000E3F2340C152F1000109ECFF
:1031300008F0AB5101013E27000E3F23ABC052F116
:10314000000109EC08F0AC5101013E27000E3F23BD
:10315000ACC052F1000109EC08F0A95101013E2771
:10316000000E3F23A9C052F1000109EC08F078C01D
:1031700040F140C152F109EC08F0010140513E27F5
:10318000000E3F2377C040F140C152F1000109EC2D
:1031900008F0010140513E27000E3F2374C052F158
:1031A000000109EC08F073C052F109EC08F072C09C
:1031B00052F109EC08F071C052F109EC08F070C04E
:1031C00052F109EC08F06FC052F109EC08F075C03B
:1031D00052F109EC08F07EC050F10101516B7EC044
:1031E00052F1000109EC08F07DC052F109EC08F041
:1031F000735074247224712470246F247524010187
:103200003E27000E3F237E50036A3E2703503F2394
:10321000036A7D503E2703503F233FC150F1516B5D
:103220003FC152F1000109EC08F03EC152F109EC36
:1032300008F094908B90F29236EF00F0260E010188
:103240000D6F810E0C6F1A8C938A060E006E002E85
:10325000FED700000C2F05D00D2F03D01A6A016A8B
:1032600020D081BAF2D7080E006E0E6B008E0ED001
:10327000009E0CD0D89081BAD8800E33008C06D036
:10328000009C002EF7D70E51016E0BD03F0E00BEF2
:10329000110E016E012EFED700BEEAD700BCF0D79A
:1032A000E9D70001120001010B6B0001C7DF01C06B
:1032B0000AF101010B510B2B036A0725E96E085136
:1032C0000320EA6E0AC1EFFF0A5303E00B51095DC8
:1032D000ECE20001C5EF1BF0010107C1E9FF08C1E5
:1032E000EAFFEFCF0BF10AC103F009C1E9FF0AC100
:1032F000EAFFEF500B5D12E108C103F007C1E9FFDF
:1033000008C1EAFFEF5203E1010E016E09D0072B5D
:10331000D8B4082B092BD8B40A2BDFD7000E016EC6
:1033200000011200C950AA0EC96EC730FEE3C95091
:10333000030EC96EC730FEE3C950030EC96EC73015
:10334000FEE3C950030EC96EC730FEE3C950040E38
:10335000C96EC730FEE3C950060EC96EC730FEE322
:10336000C950C96AC730FEE3C950AA0EC96EC7303A
:10337000FEE3C950090EC96EC730FEE3C950C96AE1
:10338000C730FEE31200C950150EC96EC730FEE308
:10339000C950550EC96EC730FEE3C950400EC96E04
:1033A000C730FEE3D5EF19F0EED7C950C96AC73070
:1033B000FEE3C9501D0EC96EC730FEE3C950500E62
:1033C000C96EC730FEE3C950C96AC730FEE3C9CF32
:1033D00008F1C950C96AC730FEE3C9CF07F108C177
:1033E00010F107C10FF1C9501D0EC96EC730FEE3C1
:1033F000C950600EC96EC730FEE3C950C96AC730F4
:10340000FEE3C9CF0AF1C950C96AC730FEE3C9CF8C
:1034100009F10AC112F109C111F1C9501D0EC96E9D
:10342000C730FEE3C950900EC96EC730FEE3C950E5
:10343000C96AC730FEE3C9CF0CF1C950C96AC730A9
:10344000FEE3C9CF0BF10CC114F10BC113F1C9504C
:103450001D0EC96EC730FEE3C950A00EC96EC7303D
:10346000FEE3C950C96AC730FEE3C9CF0EF1C950A7
:10347000C96AC730FEE3C9CF0DF10EC116F10DC107
:1034800015F1D89001011031506E0F314F6E13516C
:103490003F0B516E526A51365236513652365136C2
:1034A0005236513652365136523651365236C00E99
:1034B000511615513F0B006E036A00505126035000
:1034C00052221631546E1531536E543253325432E7
:1034D0005332543253325432533254325332030E35
:1034E00054161431566E1331556E563255325632CB
:1034F0005532563255325632553256325532030E07
:10350000561612C158F011C157F05832573258327E
:10351000573258325732583257325832573258325F
:10352000573258160FA101D0588411513F0B596ED4
:103530005A6A0001F3EF1AF09280C19CC28CC28ECD
:10354000C19EC280C190C192C184C196D76AD66A19
:10355000B80ED56E949E8B9E949C8B9C62EC00F072
:10356000196AF2BE198EF29E060E0101506F00011B
:103570007BEC00F019BEF28E196AF2BE198EF29E33
:10358000010E0101506F00017BEC00F019BEF28EBC
:10359000929A899A060E006E002EFED7000094942F
:1035A0008B94C69A949A94889496220EC66E400E76
:1035B000C76E94948B84090E006E002EFED700D047
:1035C00094948B94090E006E002EFED700D0AADED4
:1035D000929A898AC69A949A94889496220EC66E74
:1035E000C00EC76EE1D60AEF1FF0C950AA0EC96E11
:1035F000C730FEE3C950060EC96EC730FEE3C9509E
:10360000050EC96EC730FEE3C950040EC96EC7303F
:10361000FEE3C950C96AC730FEE3C950AA0EC96E9D
:10362000C730FEE3C9500A0EC96EC730FEE3C95069
:10363000C96AC730FEE32DEF20F0C950AA0EC96E4B
:10364000C730FEE3C9500B0EC96EC730FEE3C95048
:10365000C96AC730FEE3C950AA0EC96EC730FEE37F
:10366000C950090EC96EC730FEE3C950C96AC730D8
:10367000FEE341EF20F0F86AD09E078EEA6AE96A1D
:103680001A6A93988A88C180C182C184C1961B6AD4
:103690001C6A740ECF6F730ED06F740ED16FD26B25
:1036A000D36BD46BD56BD66B670ED76F440ED86FC8
:1036B000610ED96F740EDA6F6F0EDB6F730EDC6FF5
:1036C000DD6BDE6B630EDF6F6F0EE06F6E0EE16F12
:1036D000660EE26F690EE36F670EE46FE56BE66BF3
:1036E000630EE76F610EE86F6C0EE96F690EEA6FAB
:1036F000620EEB6F720EEC6F610EED6FEE6B670E8C
:10370000EF6F530EF06F610EF16F6D0EF26F700E72
:10371000F36F6C0EF46F650EF56FF66B670EF76F57
:10372000500EF86F610EF96F720EFA6F610EFB6F3B
:103730006D0EFC6FFD6BFE6B720EFF6F650E01016F
:10374000006F730E016F650E026F740E036F046BD2
:1037500094908B90196AF2BE198EF29E050E506FEE
:1037600000012BEC08F019BEF28EF18E94908B8044
:103770009380938C938E94908B800101086BC50E7F
:10378000076F0A0E096F00018ED50101086BCF0E7D
:10379000076F0A6BC50E096F00019EDD01521AE02A
:1037A000196AF2BE198EF29E4F0E0101526F00018E
:1037B00009EC08F019BEF28E196AF2BE198EF29E5B
:1037C0004B0E0101526F000109EC08F019BEF28E98
:1037D000F7EF21F00101086BD70E076F0A6BC50EDA
:1037E000096F000179DD0152D8B4F8D0196AF2BE30
:1037F000198EF29E4F0E0101526F000109EC08F084
:1038000019BEF28E196AF2BE198EF29E4B0E01019C
:10381000526F000109EC08F019BEF28E786A776ADF
:10382000773C03D0783C01D0D7D008DD01C0BDF093
:1038300005DD01C0BCF0BDC078F0BCC077F0FEDC97
:1038400001C0C0F0BD51BC25C05DD8A4C4D0773C38
:1038500003D0783C01D0BFD0775203E17852D8B47E
:10386000BAD0938C00D0938E00D0000081AEFED7EA
:103870008A9C939C00D08A9E939E196AF2BE198EF0
:10388000F29EA00E0101596F000117EC14F019BE51
:10389000F28E78C007F10101086B196AF2BE198E29
:1038A000F29E78C059F1000117EC14F019BEF28EA7
:1038B000196AF2BE198EF29E77C059F117EC14F016
:1038C00019BEF28E938C00D0938E00D0000081AE92
:1038D000FED78A9C939C00D08A9E939E196AF2BE62
:1038E000198EF29EA10E0101596F000117EC14F020
:1038F00019BEF28EC26BC16BBB6BBB51060820E3D5
:10390000036ABB51AD0FE96E000E0320EA6E010E93
:10391000006E196AF2BE198EF29E99EC14F019BE6F
:10392000F28E01C0EFFF036ABB51AD0FE96E000ECE
:103930000320EA6EEF50C127000EC223BB2BDDD758
:10394000006A196AF2BE198EF29E99EC14F019BE43
:10395000F28E01C0B4F0939C0000938E81AEFED72E
:1039600000D000D00000938C00D0B451C127000ECD
:10397000C223BB6BBB51070815E3036ABB51AD0FF4
:10398000E96E000E0320EA6EEFCF07F1196AF2BE6E
:10399000198EF29E07C152F109EC08F019BEF28EA1
:1039A000BB2BE8D7C2C007F10101086B196AF2BE50
:1039B000198EF29EC2C052F1000109EC08F019BE46
:1039C000F28E196AF2BE198EF29EC1C052F109EC54
:1039D00008F019BEF28E24D7F7EF21F00101086B31
:1039E000DF0E076F0A6BC50E096F000175DC01520F
:1039F000D8B4EFD2196AF2BE198EF29E4F0E0101B1
:103A0000526F000109EC08F019BEF28E196AF2BE7D
:103A1000198EF29E4B0E0101526F000109EC08F065
:103A200019BEF28EBF6B746ABF51130808E374525B
:103A300006E1010EBF2702DC01C074F0F5D7C26BAE
:103A400074C0C1F01EEC19F001C073F07350C127AF
:103A5000000EC2231EEC19F001C072F07250C12793
:103A6000000EC2231EEC19F001C071F07150C12785
:103A7000000EC2231EEC19F001C070F07050C12777
:103A8000000EC2231EEC19F001C06FF06F50C12769
:103A9000000EC2231EEC19F001C076F07650C1274B
:103AA000000EC2231EEC19F001C075F07550C1273D
:103AB000000EC2231EEC19F0C46B01C0C3F0C3C0DA
:103AC000C4F0C36B1EEC19F00150C327000EC423D1
:103AD000C151C35DD8A464D2C251C45DD8A460D220
:103AE000C15303E1C253D8B45BD2196AF2BE198E36
:103AF000F29E4F0E0101526F000109EC08F019BE51
:103B0000F28E196AF2BE198EF29E4B0E0101526FAF
:103B1000000109EC08F019BEF28E938C00D0938E50
:103B200000D000008A9C939C00D08A9E939E196AC4
:103B3000F2BE198EF29EA00E0101596F000117EC22
:103B400014F019BEF28E196AF2BE198EF29E0101AE
:103B5000596B000117EC14F019BEF28E196AF2BE0F
:103B6000198EF29E010E0101596F000117EC14F03D
:103B700019BEF28E196AF2BE198EF29E76C059F104
:103B800017EC14F019BEF28E196AF2BE198EF29E6D
:103B900075C059F117EC14F019BEF28E196AF2BE15
:103BA000198EF29E74C059F117EC14F019BEF28E02
:103BB000196AF2BE198EF29E73C059F117EC14F017
:103BC00019BEF28E196AF2BE198EF29E72C059F1B8
:103BD00017EC14F019BEF28E196AF2BE198EF29E1D
:103BE00071C059F117EC14F019BEF28E196AF2BEC9
:103BF000198EF29E70C059F117EC14F019BEF28EB6
:103C0000196AF2BE198EF29E6FC059F117EC14F0CA
:103C100019BEF28E939C0000938E81AEFED700D029
:103C200000D00000938C00D0938C00D0938E00D0F5
:103C300000008A9C939C00D08A9E939E196AF2BED3
:103C4000198EF29EA00E0101596F000117EC14F0BD
:103C500019BEF28E0150BE9101B0BE81BEA11DD031
:103C6000938C00D0938E00D0000081AEFED78A9C4A
:103C7000939C00D08A9E939E196AF2BE198EF29E82
:103C8000A00E0101596F000117EC14F019BEF28E5D
:103C90000150BE9101B0BE81E1D7938C00D0938ECC
:103CA00000D0000081AEFED78A9C939C00D08A9EF3
:103CB000939E196AF2BE198EF29ED00E0101596FC1
:103CC000000117EC14F019BEF28E196AF2BE198EBB
:103CD000F29E0101596B000117EC14F019BEF28E2F
:103CE000196AF2BE198EF29E0101596B000117ECA0
:103CF00014F019BEF28E196AF2BE198EF29E0101FD
:103D0000596B000117EC14F019BEF28E196AF2BE5D
:103D1000198EF29E0101596B000117EC14F019BEC7
:103D2000F28E196AF2BE198EF29E010E0101596FD0
:103D3000000117EC14F019BEF28E196AF2BE198E4A
:103D4000F29E010E0101596F000117EC14F019BE2B
:103D5000F28E196AF2BE198EF29E010E0101596FA0
:103D6000000117EC14F019BEF28E196AF2BE198E1A
:103D7000F29E0101596B000117EC14F019BEF28E8E
:103D8000196AF2BE198EF29E100E0101596F0001E0
:103D900017EC14F019BEF28E196AF2BE198EF29E5B
:103DA000130E0101596F000117EC14F019BEF28EC9
:103DB000939C0000938E81AEFED700D000D000000F
:103DC000938C00D04594196AF2BE198EF29E0101BF
:103DD000536B0B0E526F546B000144EC14F019BE80
:103DE000F28E196AF2BE198EF29E0101536B0C0E0F
:103DF000526F400E546F000144EC14F019BEF28E65
:103E0000196AF2BE198EF29E02EC15F019BEF28EFE
:103E10009CEF1AF0500E0101076F196AF2BE198E5D
:103E2000F29EFA0E506F00012BEC08F019BEF28ED4
:103E30000101072FF2D7196AF2BE198EF29E000116
:103E400024EC07F019BEF28E7CC07EF07BC07DF0C2
:103E5000938C00D0938E00D000008A9C939C00D05D
:103E60008A9E939E196AF2BE198EF29EA00E0101DF
:103E7000596F000117EC14F019BEF28E196AF2BEE8
:103E8000198EF29E0101596B000117EC14F019BE56
:103E9000F28E196AF2BE198EF29E090E0101596F57
:103EA000000117EC14F019BEF28E7EC007F101017B
:103EB000086B196AF2BE198EF29E7EC059F100019C
:103EC00017EC14F019BEF28E196AF2BE198EF29E2A
:103ED0007DC059F117EC14F019BEF28E939C0000CE
:103EE000938E81AEFED700D000D00000938C00D01E
:103EF000938C00D0938E00D000008A9C939C00D0BD
:103F00008A9E939E196AF2BE198EF29EA00E01013E
:103F1000596F000117EC14F019BEF28E0150BE91DA
:103F200001B0BE81BEA11DD0938C00D0938E00D075
:103F3000000081AEFED78A9C939C00D08A9E939EFF
:103F4000196AF2BE198EF29EA00E0101596F00018E
:103F500017EC14F019BEF28E0150BE9101B0BE8173
:103F6000E1D7196AF2BE198EF29E4F0E0101526F0F
:103F7000000109EC08F019BEF28E196AF2BE198E22
:103F8000F29E4B0E0101526F000109EC08F019BEC0
:103F9000F28E94908B90F288C00EF212FFD718D058
:103FA000196AF2BE198EF29E450E0101526F000190
:103FB00009EC08F019BEF28E196AF2BE198EF29E53
:103FC000520E0101526F000109EC08F019BEF28E89
:103FD0000ED20101086BE70E076F0A6BC50E096F61
:103FE00000016CEC19F001524FE0196AF2BE198E13
:103FF000F29E4F0E0101526F000109EC08F019BE4C
:10400000F28E196AF2BE198EF29E4B0E0101526FAA
:10401000000109EC08F019BEF28E140E0101076FC1
:10402000196AF2BE198EF29EFA0E506F00012BEC47
:1040300008F019BEF28E0101072FF2D794908B8001
:10404000196AF2BE198EF29E640E506F00012BECBD
:1040500008F019BEF28EF5EF1AF00E0E0101076F8F
:10406000196AF2BE198EF29EFA0E506F00012BEC07
:1040700008F019BEF28E0101072FF2D700011DEFE3
:104080001BF094908B90B3D10101086BEF0E076F7A
:104090000A6BC50E096F00016CEC19F00152D8B41F
:1040A000C7D0929A899A060E006E002EFED70000A5
:1040B00094948B94C69A949A94889496220EC66E81
:1040C000400EC76E94948B84090E006E002EFED7AE
:1040D00000D094948B94090E006E002EFED700D071
:1040E00092EC19F0196AF2BE198EF29E640E01016B
:1040F000506F00012BEC08F019BEF28E196AF2BE67
:10410000198EF29E51EC05F019BEF28E196AF2BEBC
:10411000198EF29E24C083F123C082F122C081F166
:1041200021C080F10101876B866B700E856F840E54
:10413000846F00017FEC01F019BEF28E196AF2BEA5
:10414000198EF29E03C083F102C082F101C081F199
:1041500000C080F136EC03F019BEF28E01C0BDF054
:10416000196AF2BE198EF29E28C083F127C082F12F
:1041700026C081F125C080F10101876B866B700E2E
:10418000856F840E846F00017FEC01F019BEF28E02
:10419000196AF2BE198EF29E03C083F102C082F149
:1041A00001C081F100C080F136EC03F019BEF28E3F
:1041B00001C0BCF00101086BBDC007F1036A00013A
:1041C000BC51010107250001C16F03500101082105
:1041D0000001C26F196AF2BE198EF29EBDC052F183
:1041E00009EC08F019BEF28E196AF2BE198EF29E21
:1041F000BCC052F109EC08F019BEF28EC2C007F142
:104200000101086B196AF2BE198EF29EC2C052F10A
:10421000000109EC08F019BEF28E196AF2BE198E7F
:10422000F29EC1C052F109EC08F019BEF28EDFD047
:104230000101086BF70E076F0A6BC50E096F0001CD
:104240006CEC19F00152D8B4D2D0196AF2BE198EB2
:10425000F29E4F0E0101526F000109EC08F019BEE9
:10426000F28E196AF2BE198EF29E4B0E0101526F48
:10427000000109EC08F019BEF28E938C00D0938EE9
:1042800000D0000081AEFED78A9C939C00D08A9E0D
:10429000939E196AF2BE198EF29EA00E0101596F0B
:1042A000000117EC14F019BEF28E196AF2BE198ED5
:1042B000F29E0101596B000117EC14F019BEF28E49
:1042C000196AF2BE198EF29E010E0101596F0001AA
:1042D00017EC14F019BEF28E938C00D0938E00D0A0
:1042E000000081AEFED78A9C939C00D08A9E939E4C
:1042F000196AF2BE198EF29EA10E0101596F0001DA
:1043000017EC14F019BEF28EC26BC16B010EBB6FBD
:10431000BB510B0820E3036ABB51AD0FE96E000EE1
:104320000320EA6E010E006E196AF2BE198EF29E2B
:1043300099EC14F019BEF28E01C0EFFF036ABB5175
:10434000AD0FE96E000E0320EA6EEF50C127000E9C
:10435000C223BB2BDDD7006A196AF2BE198EF29E0A
:1043600099EC14F019BEF28E01C0B9F0939C0000D4
:10437000938E81AEFED700D000D00000938C00D089
:10438000B951C127000EC223010EBB6FBB510C08EF
:1043900015E3036ABB51AD0FE96E000E0320EA6E10
:1043A000EFCF07F1196AF2BE198EF29E07C152F1E2
:1043B00009EC08F019BEF28EBB2BE8D7C2C007F19A
:1043C0000101086B196AF2BE198EF29EC2C052F149
:1043D000000109EC08F019BEF28E196AF2BE198EBE
:1043E000F29EC1C052F109EC08F019BEF28EBDEF89
:0443F0001BF00300BB
:020000040030CA
:0E00000000220D0E0001810000C00FE00F4035
:00000001FF
;PIC18F252
;CRC=A383  CREATED="19-Mar-13 17:52"
